{
  "_format": "hh-sol-artifact-1",
  "contractName": "VoteShield",
  "sourceName": "contracts/VoteShield.sol",
  "abi": [
    {
      "anonymous": false,
      "inputs": [
        {
          "indexed": true,
          "internalType": "uint256",
          "name": "voteId",
          "type": "uint256"
        },
        {
          "indexed": false,
          "internalType": "bytes32",
          "name": "voteHash",
          "type": "bytes32"
        },
        {
          "indexed": false,
          "internalType": "uint256",
          "name": "timestamp",
          "type": "uint256"
        }
      ],
      "name": "VoteStored",
      "type": "event"
    },
    {
      "inputs": [],
      "name": "getTotalVotes",
      "outputs": [
        {
          "internalType": "uint256",
          "name": "",
          "type": "uint256"
        }
      ],
      "stateMutability": "view",
      "type": "function"
    },
    {
      "inputs": [
        {
          "internalType": "uint256",
          "name": "_index",
          "type": "uint256"
        }
      ],
      "name": "getVote",
      "outputs": [
        {
          "internalType": "bytes",
          "name": "",
          "type": "bytes"
        },
        {
          "internalType": "uint256",
          "name": "",
          "type": "uint256"
        }
      ],
      "stateMutability": "view",
      "type": "function"
    },
    {
      "inputs": [
        {
          "internalType": "bytes",
          "name": "_encryptedVote",
          "type": "bytes"
        }
      ],
      "name": "storeEncryptedVote",
      "outputs": [],
      "stateMutability": "nonpayable",
      "type": "function"
    },
    {
      "inputs": [
        {
          "internalType": "uint256",
          "name": "",
          "type": "uint256"
        }
      ],
      "name": "votes",
      "outputs": [
        {
          "internalType": "bytes",
          "name": "encryptedData",
          "type": "bytes"
        },
        {
          "internalType": "uint256",
          "name": "timestamp",
          "type": "uint256"
        }
      ],
      "stateMutability": "view",
      "type": "function"
    }
  ],
  "bytecode": "0x608060405234801561001057600080fd5b50610aec806100206000396000f3fe608060405234801561001057600080fd5b506004361061004c5760003560e01c80630cdd2147146100515780635a55c1f01461006d5780635df813301461009e5780639a0e7d66146100cf575b600080fd5b61006b60048036038101906100669190610466565b6100ed565b005b610087600480360381019061008291906104e9565b610205565b6040516100959291906105b5565b60405180910390f35b6100b860048036038101906100b391906104e9565b61032f565b6040516100c69291906105b5565b60405180910390f35b6100d76103eb565b6040516100e491906105e5565b60405180910390f35b6000604051806040016040528084848080601f016020809104026020016040519081016040528093929190818152602001838380828437600081840152601f19601f8201169050808301925050505050505081526020014281525090806001815401808255809150506001900390600052602060002090600202016000909190919091506000820151816000019081610186919061083b565b50602082015181600101555050600060016000805490506101a7919061093c565b9050600083836040516101bb9291906109af565b60405180910390209050817fb85668123257f4f6714ffb5c3451fe9a37d2890677e2982f42d8ddec4326b28782426040516101f79291906109e1565b60405180910390a250505050565b606060008080549050831061024f576040517f08c379a000000000000000000000000000000000000000000000000000000000815260040161024690610a67565b60405180910390fd5b6000838154811061026357610262610a87565b5b90600052602060002090600202016000016000848154811061028857610287610a87565b5b9060005260206000209060020201600101548180546102a69061065e565b80601f01602080910402602001604051908101604052809291908181526020018280546102d29061065e565b801561031f5780601f106102f45761010080835404028352916020019161031f565b820191906000526020600020905b81548152906001019060200180831161030257829003601f168201915b5050505050915091509150915091565b6000818154811061033f57600080fd5b90600052602060002090600202016000915090508060000180546103629061065e565b80601f016020809104026020016040519081016040528092919081815260200182805461038e9061065e565b80156103db5780601f106103b0576101008083540402835291602001916103db565b820191906000526020600020905b8154815290600101906020018083116103be57829003601f168201915b5050505050908060010154905082565b60008080549050905090565b600080fd5b600080fd5b600080fd5b600080fd5b600080fd5b60008083601f84011261042657610425610401565b5b8235905067ffffffffffffffff81111561044357610442610406565b5b60208301915083600182028301111561045f5761045e61040b565b5b9250929050565b6000806020838503121561047d5761047c6103f7565b5b600083013567ffffffffffffffff81111561049b5761049a6103fc565b5b6104a785828601610410565b92509250509250929050565b6000819050919050565b6104c6816104b3565b81146104d157600080fd5b50565b6000813590506104e3816104bd565b92915050565b6000602082840312156104ff576104fe6103f7565b5b600061050d848285016104d4565b91505092915050565b600081519050919050565b600082825260208201905092915050565b60005b83811015610550578082015181840152602081019050610535565b60008484015250505050565b6000601f19601f8301169050919050565b600061057882610516565b6105828185610521565b9350610592818560208601610532565b61059b8161055c565b840191505092915050565b6105af816104b3565b82525050565b600060408201905081810360008301526105cf818561056d565b90506105de60208301846105a6565b9392505050565b60006020820190506105fa60008301846105a6565b92915050565b7f4e487b7100000000000000000000000000000000000000000000000000000000600052604160045260246000fd5b7f4e487b7100000000000000000000000000000000000000000000000000000000600052602260045260246000fd5b6000600282049050600182168061067657607f821691505b6020821081036106895761068861062f565b5b50919050565b60008190508160005260206000209050919050565b60006020601f8301049050919050565b600082821b905092915050565b6000600883026106f17fffffffffffffffffffffffffffffffffffffffffffffffffffffffffffffffff826106b4565b6106fb86836106b4565b95508019841693508086168417925050509392505050565b6000819050919050565b600061073861073361072e846104b3565b610713565b6104b3565b9050919050565b6000819050919050565b6107528361071d565b61076661075e8261073f565b8484546106c1565b825550505050565b600090565b61077b61076e565b610786818484610749565b505050565b5b818110156107aa5761079f600082610773565b60018101905061078c565b5050565b601f8211156107ef576107c08161068f565b6107c9846106a4565b810160208510156107d8578190505b6107ec6107e4856106a4565b83018261078b565b50505b505050565b600082821c905092915050565b6000610812600019846008026107f4565b1980831691505092915050565b600061082b8383610801565b9150826002028217905092915050565b61084482610516565b67ffffffffffffffff81111561085d5761085c610600565b5b610867825461065e565b6108728282856107ae565b600060209050601f8311600181146108a55760008415610893578287015190505b61089d858261081f565b865550610905565b601f1984166108b38661068f565b60005b828110156108db578489015182556001820191506020850194506020810190506108b6565b868310156108f857848901516108f4601f891682610801565b8355505b6001600288020188555050505b505050505050565b7f4e487b7100000000000000000000000000000000000000000000000000000000600052601160045260246000fd5b6000610947826104b3565b9150610952836104b3565b925082820390508181111561096a5761096961090d565b5b92915050565b600081905092915050565b82818337600083830152505050565b60006109968385610970565b93506109a383858461097b565b82840190509392505050565b60006109bc82848661098a565b91508190509392505050565b6000819050919050565b6109db816109c8565b82525050565b60006040820190506109f660008301856109d2565b610a0360208301846105a6565b9392505050565b600082825260208201905092915050565b7f496e76616c696420696e64657800000000000000000000000000000000000000600082015250565b6000610a51600d83610a0a565b9150610a5c82610a1b565b602082019050919050565b60006020820190508181036000830152610a8081610a44565b9050919050565b7f4e487b7100000000000000000000000000000000000000000000000000000000600052603260045260246000fdfea2646970667358221220fcafd5697a28874b81f4e86d89177b1fd0f7b8a052690ded1140cf2e336c89b764736f6c63430008110033",
  "linkReferences": {},
  "deployedLinkReferences": {}
}